{
  "_format": "hh-sol-artifact-1",
  "contractName": "CreditScore",
  "sourceName": "contracts/CreditScore.sol",
  "abi": [
    {
      "anonymous": false,
      "inputs": [
        {
          "indexed": true,
          "internalType": "string",
          "name": "nid",
          "type": "string"
        },
        {
          "indexed": false,
          "internalType": "string",
          "name": "name",
          "type": "string"
        },
        {
          "indexed": false,
          "internalType": "uint8",
          "name": "finalCreditScore",
          "type": "uint8"
        }
      ],
      "name": "BorrowerAdded",
      "type": "event"
    },
    {
      "anonymous": false,
      "inputs": [
        {
          "indexed": true,
          "internalType": "string",
          "name": "nid",
          "type": "string"
        },
        {
          "indexed": false,
          "internalType": "uint8",
          "name": "newFinalCreditScore",
          "type": "uint8"
        }
      ],
      "name": "BorrowerUpdated",
      "type": "event"
    },
    {
      "inputs": [],
      "name": "WEIGHT_ACCOUNT_BALANCE",
      "outputs": [
        {
          "internalType": "uint8",
          "name": "",
          "type": "uint8"
        }
      ],
      "stateMutability": "view",
      "type": "function"
    },
    {
      "inputs": [],
      "name": "WEIGHT_CREDIT_AGE",
      "outputs": [
        {
          "internalType": "uint8",
          "name": "",
          "type": "uint8"
        }
      ],
      "stateMutability": "view",
      "type": "function"
    },
    {
      "inputs": [],
      "name": "WEIGHT_PAYMENT_HISTORY",
      "outputs": [
        {
          "internalType": "uint8",
          "name": "",
          "type": "uint8"
        }
      ],
      "stateMutability": "view",
      "type": "function"
    },
    {
      "inputs": [],
      "name": "WEIGHT_PROFESSIONAL_RISK",
      "outputs": [
        {
          "internalType": "uint8",
          "name": "",
          "type": "uint8"
        }
      ],
      "stateMutability": "view",
      "type": "function"
    },
    {
      "inputs": [],
      "name": "WEIGHT_TOTAL_REMAINING_LOAN",
      "outputs": [
        {
          "internalType": "uint8",
          "name": "",
          "type": "uint8"
        }
      ],
      "stateMutability": "view",
      "type": "function"
    },
    {
      "inputs": [],
      "name": "WEIGHT_TOTAL_TRANSACTIONS",
      "outputs": [
        {
          "internalType": "uint8",
          "name": "",
          "type": "uint8"
        }
      ],
      "stateMutability": "view",
      "type": "function"
    },
    {
      "inputs": [
        {
          "internalType": "string",
          "name": "_nid",
          "type": "string"
        },
        {
          "internalType": "string",
          "name": "_name",
          "type": "string"
        },
        {
          "internalType": "uint8",
          "name": "_accountBalanceScore",
          "type": "uint8"
        },
        {
          "internalType": "uint8",
          "name": "_paymentHistoryScore",
          "type": "uint8"
        },
        {
          "internalType": "uint8",
          "name": "_totalTransactionsScore",
          "type": "uint8"
        },
        {
          "internalType": "uint8",
          "name": "_totalRemainingLoanScore",
          "type": "uint8"
        },
        {
          "internalType": "uint8",
          "name": "_creditAgeScore",
          "type": "uint8"
        },
        {
          "internalType": "uint8",
          "name": "_professionalRiskFactorScore",
          "type": "uint8"
        }
      ],
      "name": "addOrUpdateBorrower",
      "outputs": [],
      "stateMutability": "nonpayable",
      "type": "function"
    },
    {
      "inputs": [
        {
          "internalType": "string",
          "name": "",
          "type": "string"
        }
      ],
      "name": "borrowers",
      "outputs": [
        {
          "internalType": "string",
          "name": "nid",
          "type": "string"
        },
        {
          "internalType": "string",
          "name": "name",
          "type": "string"
        },
        {
          "internalType": "uint8",
          "name": "accountBalanceScore",
          "type": "uint8"
        },
        {
          "internalType": "uint8",
          "name": "paymentHistoryScore",
          "type": "uint8"
        },
        {
          "internalType": "uint8",
          "name": "totalTransactionsScore",
          "type": "uint8"
        },
        {
          "internalType": "uint8",
          "name": "totalRemainingLoanScore",
          "type": "uint8"
        },
        {
          "internalType": "uint8",
          "name": "creditAgeScore",
          "type": "uint8"
        },
        {
          "internalType": "uint8",
          "name": "professionalRiskFactorScore",
          "type": "uint8"
        },
        {
          "internalType": "uint8",
          "name": "finalCreditScore",
          "type": "uint8"
        },
        {
          "internalType": "bool",
          "name": "exists",
          "type": "bool"
        }
      ],
      "stateMutability": "view",
      "type": "function"
    },
    {
      "inputs": [
        {
          "internalType": "string",
          "name": "_nid",
          "type": "string"
        }
      ],
      "name": "getBorrowerDetails",
      "outputs": [
        {
          "components": [
            {
              "internalType": "string",
              "name": "nid",
              "type": "string"
            },
            {
              "internalType": "string",
              "name": "name",
              "type": "string"
            },
            {
              "internalType": "uint8",
              "name": "accountBalanceScore",
              "type": "uint8"
            },
            {
              "internalType": "uint8",
              "name": "paymentHistoryScore",
              "type": "uint8"
            },
            {
              "internalType": "uint8",
              "name": "totalTransactionsScore",
              "type": "uint8"
            },
            {
              "internalType": "uint8",
              "name": "totalRemainingLoanScore",
              "type": "uint8"
            },
            {
              "internalType": "uint8",
              "name": "creditAgeScore",
              "type": "uint8"
            },
            {
              "internalType": "uint8",
              "name": "professionalRiskFactorScore",
              "type": "uint8"
            },
            {
              "internalType": "uint8",
              "name": "finalCreditScore",
              "type": "uint8"
            },
            {
              "internalType": "bool",
              "name": "exists",
              "type": "bool"
            }
          ],
          "internalType": "struct CreditScore.Borrower",
          "name": "",
          "type": "tuple"
        }
      ],
      "stateMutability": "view",
      "type": "function"
    }
  ],
  "bytecode": "0x6080604052348015600f57600080fd5b5061187f8061001f6000396000f3fe608060405234801561001057600080fd5b50600436106100935760003560e01c8063a0c1373611610066578063a0c1373614610110578063ab8f93dc1461012e578063b360da4214610167578063c177565a14610183578063e65463ec146101b357610093565b80632435e4251461009857806369c54aae146100b65780636a9de780146100d457806388f12cc7146100f2575b600080fd5b6100a06101d1565b6040516100ad9190610d0e565b60405180910390f35b6100be6101d6565b6040516100cb9190610d0e565b60405180910390f35b6100dc6101db565b6040516100e99190610d0e565b60405180910390f35b6100fa6101e0565b6040516101079190610d0e565b60405180910390f35b6101186101e5565b6040516101259190610d0e565b60405180910390f35b61014860048036038101906101439190610e83565b6101ea565b60405161015e9a99989796959493929190610f66565b60405180910390f35b610181600480360381019061017c919061103c565b6103cc565b005b61019d60048036038101906101989190610e83565b6108de565b6040516101aa9190611273565b60405180910390f35b6101bb610b8f565b6040516101c89190610d0e565b60405180910390f35b601e81565b600a81565b600a81565b601981565b600a81565b600081805160208101820180518482526020830160208501208183528095505050505050600091509050806000018054610223906112c4565b80601f016020809104026020016040519081016040528092919081815260200182805461024f906112c4565b801561029c5780601f106102715761010080835404028352916020019161029c565b820191906000526020600020905b81548152906001019060200180831161027f57829003601f168201915b5050505050908060010180546102b1906112c4565b80601f01602080910402602001604051908101604052809291908181526020018280546102dd906112c4565b801561032a5780601f106102ff5761010080835404028352916020019161032a565b820191906000526020600020905b81548152906001019060200180831161030d57829003601f168201915b5050505050908060020160009054906101000a900460ff16908060020160019054906101000a900460ff16908060020160029054906101000a900460ff16908060020160039054906101000a900460ff16908060020160049054906101000a900460ff16908060020160059054906101000a900460ff16908060020160069054906101000a900460ff16908060020160079054906101000a900460ff1690508a565b6000885111610410576040517f08c379a000000000000000000000000000000000000000000000000000000000815260040161040790611341565b60405180910390fd5b60648660ff1611158015610428575060648560ff1611155b8015610438575060648460ff1611155b8015610448575060648360ff1611155b8015610458575060648260ff1611155b8015610468575060648160ff1611155b6104a7576040517f08c379a000000000000000000000000000000000000000000000000000000000815260040161049e906113ad565b60405180910390fd5b600080896040516104b89190611409565b9081526020016040518091039020905060008160020160079054906101000a900460ff169050898260000190816104ef91906115d6565b508882600101908161050191906115d6565b50878260020160006101000a81548160ff021916908360ff160217905550868260020160016101000a81548160ff021916908360ff160217905550858260020160026101000a81548160ff021916908360ff160217905550848260020160036101000a81548160ff021916908360ff160217905550838260020160046101000a81548160ff021916908360ff160217905550828260020160056101000a81548160ff021916908360ff1602179055506107cf82604051806101400160405290816000820180546105d0906112c4565b80601f01602080910402602001604051908101604052809291908181526020018280546105fc906112c4565b80156106495780601f1061061e57610100808354040283529160200191610649565b820191906000526020600020905b81548152906001019060200180831161062c57829003601f168201915b50505050508152602001600182018054610662906112c4565b80601f016020809104026020016040519081016040528092919081815260200182805461068e906112c4565b80156106db5780601f106106b0576101008083540402835291602001916106db565b820191906000526020600020905b8154815290600101906020018083116106be57829003601f168201915b505050505081526020016002820160009054906101000a900460ff1660ff1660ff1681526020016002820160019054906101000a900460ff1660ff1660ff1681526020016002820160029054906101000a900460ff1660ff1660ff1681526020016002820160039054906101000a900460ff1660ff1660ff1681526020016002820160049054906101000a900460ff1660ff1660ff1681526020016002820160059054906101000a900460ff1660ff1660ff1681526020016002820160069054906101000a900460ff1660ff1660ff1681526020016002820160079054906101000a900460ff161515151581525050610b94565b8260020160066101000a81548160ff021916908360ff16021790555060018260020160076101000a81548160ff0219169083151502179055508015610871578960405161081c9190611409565b60405180910390207ff5b2b8c671e925dd9dc374cbb5b407585d4fe8a3fe6aba58ccedb489e838fe418360020160069054906101000a900460ff166040516108649190610d0e565b60405180910390a26108d2565b8960405161087f9190611409565b60405180910390207f88d0799823693b3e3a59f4d1a92db028f4fff51c116cbd869c2e98ea7d39a1198a8460020160069054906101000a900460ff166040516108c99291906116a8565b60405180910390a25b50505050505050505050565b6108e6610c88565b6000826040516108f69190611409565b908152602001604051809103902060020160079054906101000a900460ff16610954576040517f08c379a000000000000000000000000000000000000000000000000000000000815260040161094b90611724565b60405180910390fd5b6000826040516109649190611409565b90815260200160405180910390206040518061014001604052908160008201805461098e906112c4565b80601f01602080910402602001604051908101604052809291908181526020018280546109ba906112c4565b8015610a075780601f106109dc57610100808354040283529160200191610a07565b820191906000526020600020905b8154815290600101906020018083116109ea57829003601f168201915b50505050508152602001600182018054610a20906112c4565b80601f0160208091040260200160405190810160405280929190818152602001828054610a4c906112c4565b8015610a995780601f10610a6e57610100808354040283529160200191610a99565b820191906000526020600020905b815481529060010190602001808311610a7c57829003601f168201915b505050505081526020016002820160009054906101000a900460ff1660ff1660ff1681526020016002820160019054906101000a900460ff1660ff1660ff1681526020016002820160029054906101000a900460ff1660ff1660ff1681526020016002820160039054906101000a900460ff1660ff1660ff1681526020016002820160049054906101000a900460ff1660ff1660ff1681526020016002820160059054906101000a900460ff1660ff1660ff1681526020016002820160069054906101000a900460ff1660ff1660ff1681526020016002820160079054906101000a900460ff1615151515815250509050919050565b600f81565b60008060009050601960ff16836040015160ff16610bb29190611773565b81610bbd91906117b5565b9050601e60ff16836060015160ff16610bd69190611773565b81610be191906117b5565b9050600f60ff16836080015160ff16610bfa9190611773565b81610c0591906117b5565b9050600a60ff168360a0015160ff16610c1e9190611773565b81610c2991906117b5565b9050600a60ff168360c0015160ff16610c429190611773565b81610c4d91906117b5565b9050600a60ff168360e0015160ff16610c669190611773565b81610c7191906117b5565b9050606481610c809190611818565b915050919050565b6040518061014001604052806060815260200160608152602001600060ff168152602001600060ff168152602001600060ff168152602001600060ff168152602001600060ff168152602001600060ff168152602001600060ff1681526020016000151581525090565b600060ff82169050919050565b610d0881610cf2565b82525050565b6000602082019050610d236000830184610cff565b92915050565b6000604051905090565b600080fd5b600080fd5b600080fd5b600080fd5b6000601f19601f8301169050919050565b7f4e487b7100000000000000000000000000000000000000000000000000000000600052604160045260246000fd5b610d9082610d47565b810181811067ffffffffffffffff82111715610daf57610dae610d58565b5b80604052505050565b6000610dc2610d29565b9050610dce8282610d87565b919050565b600067ffffffffffffffff821115610dee57610ded610d58565b5b610df782610d47565b9050602081019050919050565b82818337600083830152505050565b6000610e26610e2184610dd3565b610db8565b905082815260208101848484011115610e4257610e41610d42565b5b610e4d848285610e04565b509392505050565b600082601f830112610e6a57610e69610d3d565b5b8135610e7a848260208601610e13565b91505092915050565b600060208284031215610e9957610e98610d33565b5b600082013567ffffffffffffffff811115610eb757610eb6610d38565b5b610ec384828501610e55565b91505092915050565b600081519050919050565b600082825260208201905092915050565b60005b83811015610f06578082015181840152602081019050610eeb565b60008484015250505050565b6000610f1d82610ecc565b610f278185610ed7565b9350610f37818560208601610ee8565b610f4081610d47565b840191505092915050565b60008115159050919050565b610f6081610f4b565b82525050565b6000610140820190508181036000830152610f81818d610f12565b90508181036020830152610f95818c610f12565b9050610fa4604083018b610cff565b610fb1606083018a610cff565b610fbe6080830189610cff565b610fcb60a0830188610cff565b610fd860c0830187610cff565b610fe560e0830186610cff565b610ff3610100830185610cff565b611001610120830184610f57565b9b9a5050505050505050505050565b61101981610cf2565b811461102457600080fd5b50565b60008135905061103681611010565b92915050565b600080600080600080600080610100898b03121561105d5761105c610d33565b5b600089013567ffffffffffffffff81111561107b5761107a610d38565b5b6110878b828c01610e55565b985050602089013567ffffffffffffffff8111156110a8576110a7610d38565b5b6110b48b828c01610e55565b97505060406110c58b828c01611027565b96505060606110d68b828c01611027565b95505060806110e78b828c01611027565b94505060a06110f88b828c01611027565b93505060c06111098b828c01611027565b92505060e061111a8b828c01611027565b9150509295985092959890939650565b600082825260208201905092915050565b600061114682610ecc565b611150818561112a565b9350611160818560208601610ee8565b61116981610d47565b840191505092915050565b61117d81610cf2565b82525050565b61118c81610f4b565b82525050565b60006101408301600083015184820360008601526111b0828261113b565b915050602083015184820360208601526111ca828261113b565b91505060408301516111df6040860182611174565b5060608301516111f26060860182611174565b5060808301516112056080860182611174565b5060a083015161121860a0860182611174565b5060c083015161122b60c0860182611174565b5060e083015161123e60e0860182611174565b50610100830151611253610100860182611174565b50610120830151611268610120860182611183565b508091505092915050565b6000602082019050818103600083015261128d8184611192565b905092915050565b7f4e487b7100000000000000000000000000000000000000000000000000000000600052602260045260246000fd5b600060028204905060018216806112dc57607f821691505b6020821081036112ef576112ee611295565b5b50919050565b7f4e49442063616e6e6f7420626520656d70747900000000000000000000000000600082015250565b600061132b601383610ed7565b9150611336826112f5565b602082019050919050565b6000602082019050818103600083015261135a8161131e565b9050919050565b7f53636f726573206d757374206265206265747765656e203020616e6420313030600082015250565b6000611397602083610ed7565b91506113a282611361565b602082019050919050565b600060208201905081810360008301526113c68161138a565b9050919050565b600081905092915050565b60006113e382610ecc565b6113ed81856113cd565b93506113fd818560208601610ee8565b80840191505092915050565b600061141582846113d8565b915081905092915050565b60008190508160005260206000209050919050565b60006020601f8301049050919050565b600082821b905092915050565b6000600883026114827fffffffffffffffffffffffffffffffffffffffffffffffffffffffffffffffff82611445565b61148c8683611445565b95508019841693508086168417925050509392505050565b6000819050919050565b6000819050919050565b60006114d36114ce6114c9846114a4565b6114ae565b6114a4565b9050919050565b6000819050919050565b6114ed836114b8565b6115016114f9826114da565b848454611452565b825550505050565b600090565b611516611509565b6115218184846114e4565b505050565b5b818110156115455761153a60008261150e565b600181019050611527565b5050565b601f82111561158a5761155b81611420565b61156484611435565b81016020851015611573578190505b61158761157f85611435565b830182611526565b50505b505050565b600082821c905092915050565b60006115ad6000198460080261158f565b1980831691505092915050565b60006115c6838361159c565b9150826002028217905092915050565b6115df82610ecc565b67ffffffffffffffff8111156115f8576115f7610d58565b5b61160282546112c4565b61160d828285611549565b600060209050601f831160018114611640576000841561162e578287015190505b61163885826115ba565b8655506116a0565b601f19841661164e86611420565b60005b8281101561167657848901518255600182019150602085019450602081019050611651565b86831015611693578489015161168f601f89168261159c565b8355505b6001600288020188555050505b505050505050565b600060408201905081810360008301526116c28185610f12565b90506116d16020830184610cff565b9392505050565b7f426f72726f77657220646f6573206e6f74206578697374000000000000000000600082015250565b600061170e601783610ed7565b9150611719826116d8565b602082019050919050565b6000602082019050818103600083015261173d81611701565b9050919050565b7f4e487b7100000000000000000000000000000000000000000000000000000000600052601160045260246000fd5b600061177e826114a4565b9150611789836114a4565b9250828202611797816114a4565b915082820484148315176117ae576117ad611744565b5b5092915050565b60006117c0826114a4565b91506117cb836114a4565b92508282019050808211156117e3576117e2611744565b5b92915050565b7f4e487b7100000000000000000000000000000000000000000000000000000000600052601260045260246000fd5b6000611823826114a4565b915061182e836114a4565b92508261183e5761183d6117e9565b5b82820490509291505056fea2646970667358221220c388ad7d2e52202fc54547d6c9c49537508ba8b9b93db8373224cadcbf8abf4d64736f6c634300081c0033",
  "linkReferences": {},
  "deployedLinkReferences": {}
}